{
  "contractName": "Transaction",
  "abi": [
    {
      "anonymous": false,
      "inputs": [
        {
          "indexed": false,
          "internalType": "address",
          "name": "by",
          "type": "address"
        },
        {
          "indexed": false,
          "internalType": "uint256",
          "name": "fund",
          "type": "uint256"
        }
      ],
      "name": "FundDeposited",
      "type": "event"
    },
    {
      "anonymous": false,
      "inputs": [
        {
          "indexed": false,
          "internalType": "address",
          "name": "to",
          "type": "address"
        },
        {
          "indexed": false,
          "internalType": "address",
          "name": "from",
          "type": "address"
        },
        {
          "indexed": false,
          "internalType": "uint256",
          "name": "fund",
          "type": "uint256"
        }
      ],
      "name": "FundTransferred",
      "type": "event"
    },
    {
      "anonymous": false,
      "inputs": [
        {
          "indexed": false,
          "internalType": "address",
          "name": "by",
          "type": "address"
        },
        {
          "indexed": false,
          "internalType": "uint256",
          "name": "fund",
          "type": "uint256"
        }
      ],
      "name": "FundWithdrawed",
      "type": "event"
    },
    {
      "constant": false,
      "inputs": [
        {
          "internalType": "uint256",
          "name": "_fund",
          "type": "uint256"
        },
        {
          "internalType": "address",
          "name": "_to",
          "type": "address"
        }
      ],
      "name": "sendFund",
      "outputs": [],
      "payable": false,
      "stateMutability": "nonpayable",
      "type": "function"
    },
    {
      "constant": false,
      "inputs": [
        {
          "internalType": "uint256",
          "name": "_fund",
          "type": "uint256"
        }
      ],
      "name": "withdrawFund",
      "outputs": [],
      "payable": false,
      "stateMutability": "nonpayable",
      "type": "function"
    },
    {
      "constant": false,
      "inputs": [
        {
          "internalType": "uint256",
          "name": "_fund",
          "type": "uint256"
        }
      ],
      "name": "depositFund",
      "outputs": [],
      "payable": true,
      "stateMutability": "payable",
      "type": "function"
    },
    {
      "constant": true,
      "inputs": [],
      "name": "checkFund",
      "outputs": [
        {
          "internalType": "uint256",
          "name": "",
          "type": "uint256"
        }
      ],
      "payable": false,
      "stateMutability": "view",
      "type": "function"
    }
  ],
  "bytecode": "0x608060405234801561001057600080fd5b506105b0806100206000396000f3fe60806040526004361061003f5760003560e01c8063069b6df2146100445780630cee17251461006f578063414927cf146100aa578063585e5d2014610105575b600080fd5b34801561005057600080fd5b50610059610133565b6040518082815260200191505060405180910390f35b34801561007b57600080fd5b506100a86004803603602081101561009257600080fd5b8101908080359060200190929190505050610179565b005b3480156100b657600080fd5b50610103600480360360408110156100cd57600080fd5b8101908080359060200190929190803573ffffffffffffffffffffffffffffffffffffffff169060200190929190505050610307565b005b6101316004803603602081101561011b57600080fd5b8101908080359060200190929190505050610481565b005b60008060003373ffffffffffffffffffffffffffffffffffffffff1673ffffffffffffffffffffffffffffffffffffffff16815260200190815260200160002054905090565b60008060003373ffffffffffffffffffffffffffffffffffffffff1673ffffffffffffffffffffffffffffffffffffffff168152602001908152602001600020541180156102045750806000803373ffffffffffffffffffffffffffffffffffffffff1673ffffffffffffffffffffffffffffffffffffffff16815260200190815260200160002054115b61020d57600080fd5b60008060003373ffffffffffffffffffffffffffffffffffffffff1673ffffffffffffffffffffffffffffffffffffffff1681526020019081526020016000205490508181039050806000803373ffffffffffffffffffffffffffffffffffffffff1673ffffffffffffffffffffffffffffffffffffffff168152602001908152602001600020819055507f3afdbecfe3a2c2aec44e49084a16c8f6e3aafe8b137e902540a3010e2110ed303383604051808373ffffffffffffffffffffffffffffffffffffffff1673ffffffffffffffffffffffffffffffffffffffff1681526020018281526020019250505060405180910390a15050565b60008060003373ffffffffffffffffffffffffffffffffffffffff1673ffffffffffffffffffffffffffffffffffffffff168152602001908152602001600020541180156103925750816000803373ffffffffffffffffffffffffffffffffffffffff1673ffffffffffffffffffffffffffffffffffffffff16815260200190815260200160002054115b61039b57600080fd5b816000808373ffffffffffffffffffffffffffffffffffffffff1673ffffffffffffffffffffffffffffffffffffffff168152602001908152602001600020819055507f4ed2986a2cde8f90dd7d10ce44efb8d683b5e58ff9a6ffdc2d83dbbacee76437813384604051808473ffffffffffffffffffffffffffffffffffffffff1673ffffffffffffffffffffffffffffffffffffffff1681526020018373ffffffffffffffffffffffffffffffffffffffff1673ffffffffffffffffffffffffffffffffffffffff168152602001828152602001935050505060405180910390a15050565b60008060003373ffffffffffffffffffffffffffffffffffffffff1673ffffffffffffffffffffffffffffffffffffffff1681526020019081526020016000205490508181019050806000803373ffffffffffffffffffffffffffffffffffffffff1673ffffffffffffffffffffffffffffffffffffffff168152602001908152602001600020819055507f0b82cbb3af68ef5b24abae8cd0df3ef2bec5d21454d813002af3ed648f60c8843383604051808373ffffffffffffffffffffffffffffffffffffffff1673ffffffffffffffffffffffffffffffffffffffff1681526020018281526020019250505060405180910390a1505056fea265627a7a7231582094370f00a1a81e0991be844c3a04db0602771d61c6d1d7255bdb0ca7b10fefa564736f6c63430005100032",
  "source": "// SPDX-License-Identifier: Not-Licensed\npragma solidity >=0.4.22 <0.7.0;\n\ncontract Transaction{\n    mapping(address => uint) private accountHolders;\n    \n    event FundTransferred(address to, address from, uint fund);\n    event FundWithdrawed(address by, uint fund);\n    event FundDeposited(address by, uint fund);\n    \n    // function to send the ether amount\n    function sendFund(uint _fund, address _to) public{\n        require(accountHolders[msg.sender] > 0 && accountHolders[msg.sender] > _fund);\n        accountHolders[_to] = _fund;\n        emit FundTransferred(_to, msg.sender, _fund);\n    }\n    \n    // function to withdraw ether amount\n    function withdrawFund(uint _fund) public{\n        require(accountHolders[msg.sender] > 0 && accountHolders[msg.sender] > _fund);\n        uint amount = accountHolders[msg.sender];\n        amount -= _fund;\n        accountHolders[msg.sender] = amount;\n        emit FundWithdrawed(msg.sender, _fund);\n    }\n    \n    // function to deposit ether amount\n    function depositFund(uint _fund) payable public{\n        uint amount = accountHolders[msg.sender];\n        amount += _fund;\n        accountHolders[msg.sender] = amount;\n        emit FundDeposited(msg.sender, _fund);\n    }\n    \n    // function to check the available fund\n    function checkFund() public view returns (uint){\n        return accountHolders[msg.sender];\n    }\n}",
  "sourcePath": "/home/zeus/Documents/TransacIT/contracts/Transaction.sol",
  "compiler": {
    "name": "solc",
    "version": "0.5.16+commit.9c3226ce.Emscripten.clang"
  },
  "schemaVersion": "3.2.3",
  "updatedAt": "2020-10-13T05:22:54.957Z",
  "networkType": "ethereum",
  "devdoc": {
    "methods": {}
  },
  "userdoc": {
    "methods": {}
  }
}